S0130000736F6674776172654943552E73726563C5
S11300000C942A000C9459010C9480010C94A701BF
S11300100C94CE010C94F5010C941C020C94430234
S11300200C946A020C9491020C94B8020C94DF02B2
S11300300C9406030C942D030C9454030C947B032E
S11300400C94A2030C94C9030C94F0030C941704AD
S11300500C943E0411241FBECFE5D8E0DEBFCDBF13
S113006011E0A0E6B0E0ECE1F0E202C005900D92F0
S1130070A836B107D9F711E0A8E6B1E001C01D9296
S1130080A139B107E1F70E94D0050C940C100C942F
S11300900000813049F0813028F0823039F083301B
S11300A041F406C06ABB089567BB089564BB089514
S11300B061BB0895813049F0813028F0823039F0F5
S11300C0833041F406C06BBB089568BB089565BBDB
S11300D0089562BB0895813059F0813028F0823050
S11300E059F0833081F40CC08BB380958BBB089599
S11300F088B3809588BB089585B3809585BB0895A2
S113010082B3809582BB0895813049F0813028F014
S1130110823039F0833049F406C08BB3089588B334
S1130120089585B3089582B3089580E00895442323
S113013019F04F3FD1F521C0813069F0813028F0AA
S1130140823079F08330C9F412C08AB3962F909527
S113015089238ABB1BC087B3962F9095892387BBBD
S113016019C084B3962F9095892384BB17C081B39B
S1130170962F9095892381BB15C0813059F0813029
S113018028F0823059F0833081F40CC08AB3682B94
S11301906ABB089587B3682B67BB089584B3682B43
S11301A064BB089581B3682B61BB0895442319F09F
S11301B04F3FB1F51DC0813061F0813028F08230AD
S11301C069F0833069F50FC08BB3609568236BBB0E
S11301D0089588B36095682368BB089585B36095D6
S11301E0682365BB089582B36095682362BB089554
S11301F0813059F0813028F0823059F0833081F415
S11302000CC08BB3682B6BBB089588B3682B68BB99
S1130210089585B3682B65BB089582B3682B62BBD0
S11302200895813059F0813028F0823059F08330BC
S113023081F40CC08BB368276BBB089588B368271F
S113024068BB089585B3682765BB089582B36827A2
S113025062BB0895813051F0813028F0823049F03A
S1130260833069F409C089B368230AC086B368235C
S113027007C083B3682304C080B3682301C060E06F
S113028081E0662309F480E008958FB780688FBF0A
S1130290089581E064E040E00E9497008BB780629B
S11302A08BBF84B7806484BF08958FB78F778FBF67
S11302B008951F920F920FB60F9211242F933F931C
S11302C04F935F936F937F938F939F93AF93BF935A
S11302D0EF93FF93E0918301F09184010995FF91DD
S11302E0EF91BF91AF919F918F917F916F915F91AA
S11302F04F913F912F910F900FBE0F901F90189523
S11303001F920F920FB60F9211242F933F934F9386
S11303105F936F937F938F939F93AF93BF93EF9369
S1130320FF93E0918901F0918A010995FF91EF9182
S1130330BF91AF919F918F917F916F915F914F91F9
S11303403F912F910F900FBE0F901F9018951F9201
S11303500F920FB60F9211242F933F934F935F93F5
S11303606F937F938F939F93AF93BF93EF93FF9379
S1130370E0916400F09165000995FF91EF91BF91C0
S1130380AF919F918F917F916F915F914F913F9129
S11303902F910F900FBE0F901F9018951F920F92E0
S11303A00FB60F9211242F933F934F935F936F9344
S11303B07F938F939F93AF93BF93EF93FF93E091BA
S11303C08F01F09190010995FF91EF91BF91AF9149
S11303D09F918F917F916F915F914F913F912F9159
S11303E00F900FBE0F901F9018951F920F920FB68B
S11303F00F9211242F933F934F935F936F937F93A7
S11304008F939F93AF93BF93EF93FF93E091730107
S1130410F09174010995FF91EF91BF91AF919F9174
S11304208F917F916F915F914F913F912F910F9099
S11304300FBE0F901F9018951F920F920FB60F9238
S113044011242F933F934F935F936F937F938F93D5
S11304509F93AF93BF93EF93FF93E0918B01F09140
S11304608C010995FF91EF91BF91AF919F918F916D
S11304707F916F915F914F913F912F910F900FBE9C
S11304800F901F9018951F920F920FB60F92112480
S11304902F933F934F935F936F937F938F939F9388
S11304A0AF93BF93EF93FF93E0917901F0917A01B9
S11304B00995FF91EF91BF91AF919F918F917F919A
S11304C06F915F914F913F912F910F900FBE0F90BD
S11304D01F9018951F920F920FB60F9211242F930D
S11304E03F934F935F936F937F938F939F93AF93B8
S11304F0BF93EF93FF93E0917701F0917801099511
S1130500FF91EF91BF91AF919F918F917F916F91E7
S11305105F914F913F912F910F900FBE0F901F90BD
S113052018951F920F920FB60F9211242F933F9399
S11305304F935F936F937F938F939F93AF93BF93E7
S1130540EF93FF93E0918D01F0918E010995FF9156
S1130550EF91BF91AF919F918F917F916F915F9137
S11305604F913F912F910F900FBE0F901F901895B0
S11305701F920F920FB60F9211242F933F934F9314
S11305805F936F937F938F939F93AF93BF93EF93F7
S1130590FF93E0916200F09163000995FF91EF9160
S11305A0BF91AF919F918F917F916F915F914F9187
S11305B03F912F910F900FBE0F901F9018951F928F
S11305C00F920FB60F9211242F933F934F935F9383
S11305D06F937F938F939F93AF93BF93EF93FF9307
S11305E0E0916000F09161000995FF91EF91BF9156
S11305F0AF919F918F917F916F915F914F913F91B7
S11306002F910F900FBE0F901F9018951F920F926D
S11306100FB60F9211242F933F934F935F936F93D1
S11306207F938F939F93AF93BF93EF93FF93E09147
S11306307B01F0917C010995FF91EF91BF91AF91FE
S11306409F918F917F916F915F914F913F912F91E6
S11306500F900FBE0F901F9018951F920F920FB618
S11306600F9211242F933F934F935F936F937F9334
S11306708F939F93AF93BF93EF93FF93E091710197
S1130680F09172010995FF91EF91BF91AF919F9104
S11306908F917F916F915F914F913F912F910F9027
S11306A00FBE0F901F9018951F920F920FB60F92C6
S11306B011242F933F934F935F936F937F938F9363
S11306C09F93AF93BF93EF93FF93E0918701F091D2
S11306D088010995FF91EF91BF91AF919F918F91FF
S11306E07F916F915F914F913F912F910F900FBE2A
S11306F00F901F9018951F920F920FB60F9211240E
S11307002F933F934F935F936F937F938F939F9315
S1130710AF93BF93EF93FF93E0918501F09186012E
S11307200995FF91EF91BF91AF919F918F917F9127
S11307306F915F914F913F912F910F900FBE0F904A
S11307401F9018951F920F920FB60F9211242F939A
S11307503F934F935F936F937F938F939F93AF9345
S1130760BF93EF93FF93E0917F01F091800109958E
S1130770FF91EF91BF91AF919F918F917F916F9175
S11307805F914F913F912F910F900FBE0F901F904B
S113079018951F920F920FB60F9211242F933F9327
S11307A04F935F936F937F938F939F93AF93BF9375
S11307B0EF93FF93E0918101F09182010995FF91FC
S11307C0EF91BF91AF919F918F917F916F915F91C5
S11307D04F913F912F910F900FBE0F901F9018953E
S11307E01F920F920FB60F9211242F933F934F93A2
S11307F05F936F937F938F939F93AF93BF93EF9385
S1130800FF93E0917D01F0917E010995FF91EF91B5
S1130810BF91AF919F918F917F916F915F914F9114
S11308203F912F910F900FBE0F901F9018951F921C
S11308300F920FB60F9211242F933F934F935F9310
S11308406F937F938F939F93AF93BF93EF93FF9394
S1130850E0916F01F09170010995FF91EF91BF91C3
S1130860AF919F918F917F916F915F914F913F9144
S11308702F910F900FBE0F901F9018951F920F92FB
S11308800FB60F9211242F933F934F935F936F935F
S11308907F938F939F93AF93BF93EF93FF93E091D5
S11308A07501F09176010995FF91EF91BF91AF9198
S11308B09F918F917F916F915F914F913F912F9174
S11308C00F900FBE0F901F901895813069F0813002
S11308D028F0823079F08330C1F412C081E060E105
S11308E04FEF0E949700089581E060E24FEF0E946D
S11308F09700089581E060E44FEF0E949700089507
S113090081E060E84FEF0E9497000895813069F01C
S1130910813028F0823079F08330C1F412C081E054
S113092060E14FEF0E94D600089581E060E24FEF4E
S11309300E94D600089581E060E44FEF0E94D60043
S1130940089581E060E84FEF0E94D6000895813059
S113095069F0813028F0823079F08330C1F412C01C
S113096081E060E140E00E94D600089581E060E209
S113097040E00E94D600089581E060E440E00E94D7
S1130980D600089581E060E840E00E94D600089512
S1130990813061F0813028F0823069F08330A1F435
S11309A00FC081E060E10E941101089581E060E2DE
S11309B00E941101089581E060E40E9411010895EC
S11309C081E060E80E9411010895813069F081306E
S11309D028F0823079F08330C1F412C082E060E103
S11309E040E00E949700089581E064E040E00E94A6
S11309F09700089580E064E040E00E949700089525
S1130A0080E068E040E00E94970008958130E9F0BA
S1130A10813030F0823061F1833009F04FC03BC047
S1130A2082E060E10E942A01813009F048C082E33B
S1130A3090E00E94B10682E060E10E942A0191E008
S1130A40813009F443C090E041C081E064E00E9439
S1130A502A018130B1F582E390E00E94B10681E081
S1130A6064E00E942A0191E0813081F190E02EC07F
S1130A7080E064E00E942A01813029F582E390E05D
S1130A800E94B10680E064E00E942A0191E0813076
S1130A90E9F090E01BC080E068E00E942A01813008
S1130AA0A1F482E390E00E94B10680E068E00E9435
S1130AB02A0191E0813051F090E008C0089590E05F
S1130AC005C090E003C090E001C090E0892F089534
S1130AD084B7829586958695837080FF03C00E94B3
S1130AE04B0602C00E94480694B780E4892784BF5D
S1130AF00895CF93DF93CDB7DEB728970FB6F89458
S1130B00DEBF0FBECDBF6D837E838F83988719822E
S1130B101A821B821C828D819E81AF81B8850097C9
S1130B20A105B105A1F119821A821B821C82898157
S1130B309A81AB81BC818A309105A105B105A0F4ED
S1130B4089819A81AB81BC810196A11DB11D8983E4
S1130B509A83AB83BC8389819A81AB81BC818A30BF
S1130B609105A105B10560F38D819E81AF81B885A2
S1130B700197A109B1098D839E83AF83B8878D81C5
S1130B809E81AF81B8850097A105B10561F62896CD
S1130B900FB6F894DEBF0FBECDBFDF91CF9108959D
S1130BA080E00E94650481E00E94650482E00E9466
S1130BB0650483E00E94650482E06FEF0E944900AF
S1130BC081E00E940206C8E6D1E00E9450068093AC
S1130BD06801A99A8FE99FE00197F1F700C000002E
S1130BE0A998CE010E941706F0CF882319F081300E
S1130BF041F404C084B78F7B84BF089584B78064B4
S1130C0084BF0895EF920F9380E060E043E020E01A
S1130C1000E0EE24E3940E945F060E9445010E94D6
S1130C20490181E00E94F5050F91EF900895AF927C
S1130C30BF92CF92DF92EF92FF920F931F93FC012A
S1130C40808190916901392F20E0280F311D932F65
S1130C50990F990B492F592F692F792F892F0F2E0F
S1130C60FEE1AF2EF02DBB24CC24DD24EE24FF24A2
S1130C7000E010E00E94CA072295207F28BB1F9144
S1130C800F91FF90EF90DF90CF90BF90AF900895B9
S1130C900E945B0608950E945206089582BF08953B
S1130CA082B7089583B7887F83BF93B780916E011D
S1130CB0892B83BF089583B7887F83BF0895EF92FC
S1130CC00F93442319F40E945B0648C093B7892B01
S1130CD0842B83BF40936E0122BF603171F0613178
S1130CE018F4662331F014C0603259F0603381F493
S1130CF00CC083B78F7C83BF0BC083B7806183BF75
S1130D0007C083B7806283BF03C083B7806383BF98
S1130D100CBF81E0E81669F0E81620F082E0E816DE
S1130D20E9F410C010926D010E94550189B719BEF3
S1130D3015C081E080936D010E94450189B78160EF
S1130D4089BF0CC081E080936D018FB780688FBF2D
S1130D5089B7816089BF89B7826089BF0F91EF909D
S1130D600895AC0160E070E041155105610571051D
S1130D7089F080E090E0DC0108B600FEFDCF28B7E2
S1130D80216028BF0196A11DB11D84179507A607F0
S1130D90B70790F30895DC01CB0110926901009725
S1130DA0A105B10531F080EF0E944E060E94500665
S1130DB0FDCF88B7816088BF0895CF92DF92EF920C
S1130DC0FF92CF93C82F8FEF80936B0160916B01DB
S1130DD070E080E090E00E94A30E6B017C016C2F18
S1130DE070E080E090E00E94A30E20E030E048EC48
S1130DF052E40E940F0E9B01AC01C701B6010E9490
S1130E00310F0E94770E60936B0180916D018823EE
S1130E1019F0813029F51FC00E94520680916B01A0
S1130E200E944E0608B600FEFDCF88B7816088BFD9
S1130E3085B38FEF85BB0E94520680916B0180952C
S1130E400E944E0608B600FEFDCF88B7816088BFB9
S1130E5085B315BA05C00E94520680916B018CBF00
S1130E60CF91FF90EF90DF90CF900895EF920F9382
S1130E7080E060E041E020E000E0EE240E945F06B4
S1130E8080E560E00E94DD0680E060E041E020E073
S1130E90EE24E3940E945F060F91EF9008958091F1
S1130EA069018F5F80936901089582B3809582BB45
S1130EB008959DBD8CBD08958CB59DB50895089584
S1130EC0089508950895089584BD089584B50895F6
S1130ED085B5887F85BD95B580916C01892B85BDCD
S1130EE0089585B5887F85BD0895CF920F934423D7
S1130EF019F40E9471073EC095B5892B842B85BDDA
S1130F0040936C0124BD603171F0613118F46623A3
S1130F1031F014C0603259F0603381F40CC085B5EF
S1130F208F7C85BD0BC085B5806185BD07C085B547
S1130F30806285BD03C085B5806385BD03BD80E443
S1130F40C81651F080E8C81669F0CC2099F40E94C4
S1130F50550189B719BE0EC00E94450189B7806446
S1130F6089BF08C00E94450189B7806489BF89B7D9
S1130F70806889BF0F91CF900895009741F008B61B
S1130F8006FEFDCF28B7206428BF0197C1F7089556
S1130F9008950895A4E3B0E0E0EDF7E00C94D60FD3
S1130FA0298B3A8B4B8B5C8B6D8B7E8B8F8B988FC5
S1130FB0A986BA86CB86DC86ED86FE860F87188BDB
S1130FC089849A84AB84BC848D859E85AF85B889D9
S1130FD009891A892B893C890DA31EA32FA338A73D
S1130FE0CD88DE88EF88F88C0097A105B10509F05B
S1130FF0B5C3C814D904EA04FB0408F04DC110E0D9
S1131000811610E0910611E0A10610E0B10658F433
S11310102FEF82169104A104B10409F090F480E04A
S113102090E0DC0117C030E0831630E0930630E036
S1131030A30631E0B30650F480E190E0A0E0B0E014
S113104009C088E090E0A0E0B0E004C088E190E04E
S1131050A0E0B0E0B501A401082E04C07695679520
S1131060579547950A94D2F7FA01E959FF4F208121
S113107040E250E060E070E0481B590B6A0B7B0BC8
S1131080421B510961097109411551056105710539
S1131090A1F1042E04C0880C991CAA1CBB1C0A9440
S11310A0D2F797018601042E04C0000F111F221FDE
S11310B0331F0A94D2F780E290E0841B950BCDA0F5
S11310C0DEA0EFA0F8A404C0F694E794D794C794E4
S11310D08A95D2F7C02AD12AE22AF32A0DA11EA1A9
S11310E02FA138A504C0000F111F221F331F4A95DA
S11310F0D2F70DA31EA32FA338A7250166247724B6
S1131100950184012070307009A31AA32BA33CA37A
S1131110C701B601A30192010E94B30F2D8F3E8F28
S11311204F8F58A3698F7A8F8B8F9C8FC701B6011D
S1131130A30192010E94B30FCA01B90129A13AA1E6
S11311404BA15CA10E94940FAB01BC01098D1A8DC7
S11311502B8D3C8D7801DD24CC240DA11EA12FA163
S113116038A5C901AA27BB27C82AD92AEA2AFB2AF3
S11311700D8D1E8D2F8D38A1C416D506E606F706F3
S113118038F50150104020403040098F1A8F2B8FC2
S11311903C8FC80CD91CEA1CFB1CC814D904EA04F3
S11311A0FB04D0F0C416D506E606F706A8F40D8DA8
S11311B01E8D2F8D38A10250104020403040098FE1
S11311C01A8F2B8F3C8FC80CD91CEA1CFB1C04C043
S11311D0098F1A8F2B8F3C8FC41AD50AE60AF70A97
S11311E0C701B601A30192010E94B30F2D8F3E8F58
S11311F04F8F58A369A77AA78BA79CA7C701B601ED
S1131200A30192010E94B30FCA01B90129A13AA115
S11312104BA15CA10E94940F6B017C0149A55AA5C6
S11312206BA57CA59A01112700274DA15EA16FA192
S113123078A560707070042B152B262B372B8D8DA1
S11312409E8DAF8DB8A10C151D052E053F05C0F46C
S11312500197A109B109080D191D2A1D3B1D081587
S113126019052A053B0560F00C151D052E053F05E3
S113127038F48D8D9E8DAF8DB8A10297A109B10967
S1131280098D1A8D2B8D3C8D7801DD24CC24C82A40
S1131290D92AEA2AFB2AA5C481149104A104B10421
S11312A051F461E070E080E090E0A50194010E94B7
S11312B0B30F49015A0110E0811610E0910611E0C4
S11312C0A10610E0B10658F42FEF82169104A10490
S11312D0B10409F090F480E090E0DC0117C030E044
S11312E0831630E0930630E0A30631E0B30650F4F1
S11312F080E190E0A0E0B0E009C088E090E0A0E0E8
S1131300B0E004C088E190E0A0E0B0E0B501A40141
S1131310082E04C076956795579547950A94D2F799
S1131320FA01E959FF4F2081AC01BD01420F511D63
S1131330611D711D80E290E0A0E0B0E0841B950B7C
S1131340A60BB70B51F4C818D908EA08FB08F1E05A
S11313504F2E512C612C712C24C1082E04C0880CF2
S1131360991CAA1CBB1C0A94D2F797018601042E6F
S113137004C036952795179507950A94D2F709A3C3
S11313801AA32BA33CA397018601082E04C0000FC7
S1131390111F221F331F0A94D2F70D8F1E8F2F8F18
S11313A038A30DA11EA12FA138A504C036952795F9
S11313B0179507954A95D2F7B901A8010D8D1E8D91
S11313C02F8D38A1042B152B262B372B0D8F1E8F19
S11313D02F8F38A30DA11EA12FA138A504C0000F83
S11313E0111F221F331F8A95D2F70DA31EA32FA30B
S11313F038A7250166247724950184012070307074
S113140009A71AA72BA73CA769A17AA18BA19CA124
S1131410A30192010E94B30F298F3A8F4B8F5C8FE7
S11314206B017C0169A17AA18BA19CA1A30192010A
S11314300E94B30FCA01B90129A53AA54BA55CA521
S11314400E94940FAB01BC017601DD24CC240D8DE8
S11314501E8D2F8D38A1C901AA27BB27C82AD92AD6
S1131460EA2AFB2A098D1A8D2B8D3C8DC416D506CC
S1131470E606F70638F5015010402040304009A335
S11314801AA32BA33CA3C80CD91CEA1CFB1CC8142C
S1131490D904EA04FB04D0F0C416D506E606F70620
S11314A0A8F4098D1A8D2B8D3C8D025010402040DC
S11314B0304009A31AA32BA33CA3C80CD91CEA1CD3
S11314C0FB1C04C009A31AA32BA33CA3C41AD50A6A
S11314D0E60AF70AC701B601A30192010E94B30FFD
S11314E0298F3A8F4B8F5C8F6DA77EA78FA798AB00
S11314F0C701B601A30192010E94B30FCA01B90149
S113150029A53AA54BA55CA50E94940F8B019C01CB
S11315104DA55EA56FA578A9DA01992788274D8D79
S11315205E8D6F8D78A160707070842B952BA62BC7
S1131530B72B498D5A8D6B8D7C8D80179107A2072F
S1131540B307F0F44150504060407040880D991D3D
S1131550AA1DBB1D88159905AA05BB0588F080172F
S11315609107A207B30760F4498D5A8D6B8D7C8D6A
S11315704250504060407040880D991DAA1DBB1D0B
S11315806C017D01C01AD10AE20AF30A09A11AA169
S11315902BA13CA1380155244424442A552A662A07
S11315A0772A8501222733270D8F1E8F2F8F38A38B
S11315B0950184012070307009A71AA72BA73CA7B6
S11315C0C701B6012D8D3E8D4F8D58A10E94B30FDA
S11315D0298F3A8F4B8F5C8F69A37AA38BA39CA32B
S11315E0C701B6012D8D3E8D4F8D58A10E94B30FBA
S11315F0CA01B90129A53AA54BA55CA50E94940F7F
S1131600AB01BC0109A11AA12BA13CA17801DD24E5
S1131610CC240DA11EA12FA138A5C901AA27BB273F
S1131620C82AD92AEA2AFB2A098D1A8D2B8D3C8DCA
S1131630C416D506E606F70638F5015010402040DA
S1131640304009A31AA32BA33CA3C80CD91CEA1C41
S1131650FB1CC814D904EA04FB04D0F0C416D50654
S1131660E606F706A8F4098D1A8D2B8D3C8D0250E1
S113167010402040304009A31AA32BA33CA3C80C5C
S1131680D91CEA1CFB1C04C009A31AA32BA33CA36A
S1131690C41AD50AE60AF70AC701B6012D8D3E8D94
S11316A04F8D58A10E94B30F298F3A8F4B8F5C8FB7
S11316B06DA77EA78FA798ABC701B6012D8D3E8D70
S11316C04F8D58A10E94B30FCA01B90129A53AA5AB
S11316D04BA55CA50E94940F8B019C014DA55EA5B2
S11316E06FA578A9DA01992788274DA15EA16FA17A
S11316F078A560707070842B952BA62BB72B498D21
S11317005A8D6B8D7C8D80179107A207B307D0F497
S11317104150504060407040880D991DAA1DBB1D6A
S113172088159905AA05BB0568F080179107A207DB
S1131730B30740F4498D5A8D6B8D7C8D42505040D7
S11317406040704009A11AA12BA13CA17801DD24BD
S1131750CC24C42AD52AE62AF72A46C2C816D906B2
S1131760EA06FB0608F42DC2803010E0910711E070
S1131770A10710E0B10750F48F3F9105A105B10511
S113178009F088F400E010E0980116C0803020E0F1
S1131790920720E0A20721E0B20750F400E110E034
S11317A020E030E009C008E010E020E030E004C0B0
S11317B008E110E020E030E0AC01BD01002E04C0DF
S11317C076956795579547950A94D2F7FA01E959A2
S11317D0FF4F4081040F111D211D311D40E250E0D7
S11317E060E070E0401B510B620B730BA1F48C158D
S11317F09D05AE05BF0508F4EBC10DA11EA12FA1E7
S113180038A5442455243201081519052A053B0539
S113181008F0E1C1D9C1342E2C013D0104C0440CAF
S1131820551C661C771C4A95D2F7D501C401002EBD
S113183004C0B695A795979587950A94D2F7482A38
S1131840592A6A2A7B2AA5019401032C04C0220F79
S1131850331F441F551F0A94D2F729A73AA74BA751
S11318605CA7B701A601002E04C07695679557952D
S113187047950A94D2F749A35AA36BA37CA3C70143
S1131880B601032C04C0660F771F881F991F0A94A2
S1131890D2F76D8F7E8F8F8F98A38DA19EA1AFA15C
S11318A0B8A504C0B695A795979587950A95D2F7DC
S11318B04D8D5E8D6F8D78A1482B592B6A2B7B2B18
S11318C04D8F5E8F6F8F78A34301AA24BB249301AD
S11318D08201207030700DA71EA72FA738AB69A115
S11318E07AA18BA19CA1A50194010E94B30F298F19
S11318F03A8F4B8F5C8F6B017C0169A17AA18BA11C
S11319009CA1A50194010E94B30FCA01B9012DA5A0
S11319103EA54FA558A90E94940FDC01CB01760186
S1131920DD24CC240D8D1E8D2F8D38A1A9016627B1
S11319307727C42AD52AE62AF72A098D1A8D2B8DF2
S11319403C8DC816D906EA06FB0638F5015010404E
S11319502040304009A31AA32BA33CA3C40CD51CDC
S1131960E61CF71CC414D504E604F704D0F0C8162A
S1131970D906EA06FB06A8F4098D1A8D2B8D3C8D39
S1131980025010402040304009A31AA32BA33CA3CB
S1131990C40CD51CE61CF71C04C009A31AA32BA372
S11319A03CA3C81AD90AEA0AFB0AC701B601A50171
S11319B094010E94B30F298F3A8F4B8F5C8F69ABD0
S11319C07AAB8BAB9CABC701B601A50194010E9415
S11319D0B30FCA01B9012DA53EA54FA558A90E9470
S11319E0940F4B015C0149A95AA96BA97CA99A01DE
S11319F0112700278D8D9E8DAF8DB8A1A070B0707A
S1131A00082B192B2A2B3B2B898D9A8DAB8DBC8DE2
S1131A10081519052A053B05E0F40197A109B10948
S1131A20040D151D261D371D04151505260537053E
S1131A3080F0081519052A053B0558F4898D9A8DFF
S1131A40AB8DBC8D0297A109B109040D151D261D8E
S1131A50371DB901A801481959096A097B094D8F35
S1131A605E8F6F8F78A309A11AA12BA13CA17801E5
S1131A70DD24CC24C82AD92AEA2AFB2AFFEF8F2E98
S1131A80FFEF9F2EA12CB12C8C209D20AE20BF20D7
S1131A90870122273327098F1A8F2B8F3C8F49A464
S1131AA05AA46BA47CA42FEF3FEF40E050E0422205
S1131AB053226422752229A53AA54BA55CA58A0167
S1131AC02227332709A31AA32BA33CA3C501B401DE
S1131AD0A30192010E94940F69A77AA78BA79CA7E0
S1131AE0C501B40129A13AA14BA15CA10E94940FA4
S1131AF04B015C01698D7A8D8B8D9C8DA3019201C4
S1131B000E94940F2B013C01698D7A8D8B8D9C8DE5
S1131B1029A13AA14BA15CA10E94940FAB01BC0185
S1131B20840C951CA61CB71C09A51AA52BA53CA5BD
S1131B30C901AA27BB27880E991EAA1EBB1E84149E
S1131B409504A604B70420F4405050406F4F7F4FD3
S1131B50C501AA27BB27840F951FA61FB71F0D8D8C
S1131B601E8D2F8D38A1081719072A073B0718F176
S1131B7080179107A207B307A1F55401992488247B
S1131B8089A59AA5ABA5BCA5A070B070880E991EB6
S1131B90AA1EBB1E4DA15EA16FA178A5032C04C093
S1131BA0440F551F661F771F0A94D2F7481559052D
S1131BB06A057B05B0F40894C108D108E108F1086E
S1131BC010C0442455243201CC24DD2476010CC0F9
S1131BD044245524320181E0C82ED12CE12CF12C6F
S1131BE003C0442455243201FE01319688E0DF010C
S1131BF01D928A95E9F7C982DA82EB82FC824D82D2
S1131C005E826F8278862C2D3A814B815C81642DB3
S1131C107E818F819885E496E1E10C94F20F0CD0DB
S1131C20E6C0DED040F0D5D030F021F45F3F19F0AB
S1131C30C7C0511110C1CAC0EBD098F39923C9F39E
S1131C405523B1F3951B550BBB27AA2762177307BE
S1131C50840738F09F5F5F4F220F331F441FAA1F72
S1131C60A9F333D00E2E3AF0E0E830D09150504032
S1131C70E695001CCAF729D0FE2F27D0660F771FE0
S1131C80881FBB1F261737074807AB07B0E809F0C2
S1131C90BB0B802DBF01FF2793585F4F2AF09E3F57
S1131CA0510568F08DC0D7C05F3FECF3983EDCF37C
S1131CB0869577956795B795F7959F5FC9F7880FD0
S1131CC0911D9695879597F90895E1E0660F771F22
S1131CD0881FBB1F621773078407BA0720F0621BB3
S1131CE0730B840BBA0BEE1F88F7E095089598D018
S1131CF088F09F5790F0B92F9927B751A0F0D1F0F1
S1131D00660F771F881F991F1AF0BA95C9F712C07A
S1131D10B13081F09FD0B1E008959CC0672F782F37
S1131D208827B85F39F0B93FCCF3869577956795E6
S1131D30B395D9F73EF490958095709561957F4F52
S1131D408F4F9F4F0895E89409C097FB3EF49095F8
S1131D508095709561957F4F8F4F9F4F9923A9F080
S1131D60F92F96E9BB279395F6958795779567950F
S1131D70B795F111F8CFFAF4BB0F11F460FF1BC053
S1131D806F5F7F4F8F4F9F4F16C0882311F096E9E6
S1131D9011C0772321F09EE8872F762F05C0662394
S1131DA071F096E8862F70E060E02AF09A95660F4D
S1131DB0771F881FDAF7880F9695879597F9089506
S1131DC097F99F6780E870E060E008959FEF80ECEA
S1131DD0089500240A94161617061806090608958D
S1131DE000240A9412161306140605060895092EF3
S1131DF00394000C11F4882352F0BB0F40F4BF2B62
S1131E0011F460FF04C06F5F7F4F8F4F9F4F0895A1
S1131E1057FD9058440F551F59F05F3F71F0479597
S1131E20880F97FB991F61F09F3F79F0879508957C
S1131E30121613061406551FF2CF4695F1DF08C09B
S1131E40161617061806991FF1CF869571056105B8
S1131E5008940895E894BB2766277727CB0197F960
S1131E6008950BD0C4CFB5DF28F0BADF18F095235E
S1131E7009F0A6CFABCF1124EECFCADFA0F3959F14
S1131E80D1F3950F50E0551F629FF001729FBB275D
S1131E90F00DB11D639FAA27F00DB11DAA1F649F09
S1131EA06627B00DA11D661F829F2227B00DA11DBC
S1131EB0621F739FB00DA11D621F839FA00D611D42
S1131EC0221F749F3327A00D611D231F849F600D63
S1131ED0211D822F762F6A2F11249F5750408AF09C
S1131EE0E1F088234AF0EE0FFF1FBB1F661F771F28
S1131EF0881F91505040A9F79E3F510570F060CF64
S1131F00AACF5F3FECF3983EDCF38695779567950F
S1131F10B795F795E7959F5FC1F7FE2B880F911D45
S1131F209695879597F90895629FD001739FF00164
S1131F30829FE00DF11D649FE00DF11D929FF00D55
S1131F40839FF00D749FF00D659FF00D9927729F8C
S1131F50B00DE11DF91F639FB00DE11DF91FBD0117
S1131F60CF0111240895A1E21A2EAA1BBB1BFD0167
S1131F700DC0AA1FBB1FEE1FFF1FA217B307E40764
S1131F80F50720F0A21BB30BE40BF50B661F771FBC
S1131F90881F991F1A9469F760957095809590959C
S1131FA09B01AC01BD01CF0108952F923F924F9246
S1131FB05F926F927F928F929F92AF92BF92CF92D5
S1131FC0DF92EF92FF920F931F93CF93DF93CDB7DE
S1131FD0DEB7CA1BDB0B0FB6F894DEBF0FBECDBF56
S1131FE009942A88398848885F846E847D848C8427
S1131FF09B84AA84B984C884DF80EE80FD800C8130
S11320001B81AA81B981CE0FD11D0FB6F894DEBF12
S10F20100FBECDBFED010895F894FFCF82
S113201C4F0755076805010001020203030303047B
S113202C0404040404040405050505050505050557
S113203C0505050505050506060606060606060637
S113204C0606060606060606060606060606060620
S113205C0606060606060607070707070707070707
S113206C07070707070707070707070707070707F0
S113207C07070707070707070707070707070707E0
S113208C07070707070707070707070707070707D0
S113209C07070707070707080808080808080808B7
S11320AC08080808080808080808080808080808A0
S11320BC0808080808080808080808080808080890
S11320CC0808080808080808080808080808080880
S11320DC0808080808080808080808080808080870
S11320EC0808080808080808080808080808080860
S11320FC0808080808080808080808080808080850
S113210C080808080808080808080808080808083F
S10B211C08080808080808007F
S9030000FC
