:100000000C942A000C9459010C9480010C94A701C3
:100010000C94CE010C94F5010C941C020C94430238
:100020000C946A020C9491020C94B8020C94DF02B6
:100030000C9406030C942D030C9454030C947B0332
:100040000C94A2030C94C9030C94F0030C941704B1
:100050000C943E0411241FBECFE5D8E0DEBFCDBF17
:1000600010E0A0E6B0E0ECEBF9E102C005900D92E3
:10007000AC36B107D9F710E0ACE6B0E001C01D9294
:10008000A339B107E1F70E9469050C94DC0C0C94CC
:100090000000813049F0813028F0823039F083301F
:1000A00041F406C06ABB089567BB089564BB089518
:1000B00061BB0895813049F0813028F0823039F0F9
:1000C000833041F406C06BBB089568BB089565BBDF
:1000D000089562BB0895813059F0813028F0823054
:1000E00059F0833081F40CC08BB380958BBB08959D
:1000F00088B3809588BB089585B3809585BB0895A6
:1001000082B3809582BB0895813049F0813028F018
:10011000823039F0833049F406C08BB3089588B338
:10012000089585B3089582B3089580E00895442327
:1001300019F04F3FD1F521C0813069F0813028F0AE
:10014000823079F08330C9F412C08AB3962F90952B
:1001500089238ABB1BC087B3962F9095892387BBC1
:1001600019C084B3962F9095892384BB17C081B39F
:10017000962F9095892381BB15C0813059F081302D
:1001800028F0823059F0833081F40CC08AB3682B98
:100190006ABB089587B3682B67BB089584B3682B47
:1001A00064BB089581B3682B61BB0895442319F0A3
:1001B0004F3FB1F51DC0813061F0813028F08230B1
:1001C00069F0833069F50FC08BB3609568236BBB12
:1001D000089588B36095682368BB089585B36095DA
:1001E000682365BB089582B36095682362BB089558
:1001F000813059F0813028F0823059F0833081F419
:100200000CC08BB3682B6BBB089588B3682B68BB9D
:10021000089585B3682B65BB089582B3682B62BBD4
:100220000895813059F0813028F0823059F08330C0
:1002300081F40CC08BB368276BBB089588B3682723
:1002400068BB089585B3682765BB089582B36827A6
:1002500062BB0895813051F0813028F0823049F03E
:10026000833069F409C089B368230AC086B3682360
:1002700007C083B3682304C080B3682301C060E073
:1002800081E0662309F480E008958FB780688FBF0E
:10029000089581E064E040E00E9497008BB780629F
:1002A0008BBF84B7806484BF08958FB78F778FBF6B
:1002B00008951F920F920FB60F9211242F933F9320
:1002C0004F935F936F937F938F939F93AF93BF935E
:1002D000EF93FF93E0918700F09188000995FF91DB
:1002E000EF91BF91AF919F918F917F916F915F91AE
:1002F0004F913F912F910F900FBE0F901F90189527
:100300001F920F920FB60F9211242F933F934F938A
:100310005F936F937F938F939F93AF93BF93EF936D
:10032000FF93E0918D00F0918E000995FF91EF9180
:10033000BF91AF919F918F917F916F915F914F91FD
:100340003F912F910F900FBE0F901F9018951F9205
:100350000F920FB60F9211242F933F934F935F93F9
:100360006F937F938F939F93AF93BF93EF93FF937D
:10037000E0916800F09169000995FF91EF91BF91BC
:10038000AF919F918F917F916F915F914F913F912D
:100390002F910F900FBE0F901F9018951F920F92E4
:1003A0000FB60F9211242F933F934F935F936F9348
:1003B0007F938F939F93AF93BF93EF93FF93E091BE
:1003C0006600F09167000995FF91EF91BF91AF91A1
:1003D0009F918F917F916F915F914F913F912F915D
:1003E0000F900FBE0F901F9018951F920F920FB68F
:1003F0000F9211242F933F934F935F936F937F93AB
:100400008F939F93AF93BF93EF93FF93E09164001B
:10041000F09165000995FF91EF91BF91AF919F9188
:100420008F917F916F915F914F913F912F910F909D
:100430000FBE0F901F9018951F920F920FB60F923C
:1004400011242F933F934F935F936F937F938F93D9
:100450009F93AF93BF93EF93FF93E0918F00F09141
:1004600090000995FF91EF91BF91AF919F918F916E
:100470007F916F915F914F913F912F910F900FBEA0
:100480000F901F9018951F920F920FB60F92112484
:100490002F933F934F935F936F937F938F939F938C
:1004A000AF93BF93EF93FF93E0917D00F0917E00B7
:1004B0000995FF91EF91BF91AF919F918F917F919E
:1004C0006F915F914F913F912F910F900FBE0F90C1
:1004D0001F9018951F920F920FB60F9211242F9311
:1004E0003F934F935F936F937F938F939F93AF93BC
:1004F000BF93EF93FF93E0917B00F0917C0009950F
:10050000FF91EF91BF91AF919F918F917F916F91EB
:100510005F914F913F912F910F900FBE0F901F90C1
:1005200018951F920F920FB60F9211242F933F939D
:100530004F935F936F937F938F939F93AF93BF93EB
:10054000EF93FF93E0919100F09192000995FF9154
:10055000EF91BF91AF919F918F917F916F915F913B
:100560004F913F912F910F900FBE0F901F901895B4
:100570001F920F920FB60F9211242F933F934F9318
:100580005F936F937F938F939F93AF93BF93EF93FB
:10059000FF93E0916200F09163000995FF91EF9164
:1005A000BF91AF919F918F917F916F915F914F918B
:1005B0003F912F910F900FBE0F901F9018951F9293
:1005C0000F920FB60F9211242F933F934F935F9387
:1005D0006F937F938F939F93AF93BF93EF93FF930B
:1005E000E0916000F09161000995FF91EF91BF915A
:1005F000AF919F918F917F916F915F914F913F91BB
:100600002F910F900FBE0F901F9018951F920F9271
:100610000FB60F9211242F933F934F935F936F93D5
:100620007F938F939F93AF93BF93EF93FF93E0914B
:100630007F00F09180000995FF91EF91BF91AF91FC
:100640009F918F917F916F915F914F913F912F91EA
:100650000F900FBE0F901F9018951F920F920FB61C
:100660000F9211242F933F934F935F936F937F9338
:100670008F939F93AF93BF93EF93FF93E091770096
:10068000F09178000995FF91EF91BF91AF919F9103
:100690008F917F916F915F914F913F912F910F902B
:1006A0000FBE0F901F9018951F920F920FB60F92CA
:1006B00011242F933F934F935F936F937F938F9367
:1006C0009F93AF93BF93EF93FF93E0918B00F091D3
:1006D0008C000995FF91EF91BF91AF919F918F9100
:1006E0007F916F915F914F913F912F910F900FBE2E
:1006F0000F901F9018951F920F920FB60F92112412
:100700002F933F934F935F936F937F938F939F9319
:10071000AF93BF93EF93FF93E0918900F0918A002C
:100720000995FF91EF91BF91AF919F918F917F912B
:100730006F915F914F913F912F910F900FBE0F904E
:100740001F9018951F920F920FB60F9211242F939E
:100750003F934F935F936F937F938F939F93AF9349
:10076000BF93EF93FF93E0918300F091840009958C
:10077000FF91EF91BF91AF919F918F917F916F9179
:100780005F914F913F912F910F900FBE0F901F904F
:1007900018951F920F920FB60F9211242F933F932B
:1007A0004F935F936F937F938F939F93AF93BF9379
:1007B000EF93FF93E0918500F09186000995FF91FA
:1007C000EF91BF91AF919F918F917F916F915F91C9
:1007D0004F913F912F910F900FBE0F901F90189542
:1007E0001F920F920FB60F9211242F933F934F93A6
:1007F0005F936F937F938F939F93AF93BF93EF9389
:10080000FF93E0918100F09182000995FF91EF91B3
:10081000BF91AF919F918F917F916F915F914F9118
:100820003F912F910F900FBE0F901F9018951F9220
:100830000F920FB60F9211242F933F934F935F9314
:100840006F937F938F939F93AF93BF93EF93FF9398
:10085000E0917500F09176000995FF91EF91BF91BD
:10086000AF919F918F917F916F915F914F913F9148
:100870002F910F900FBE0F901F9018951F920F92FF
:100880000FB60F9211242F933F934F935F936F9363
:100890007F938F939F93AF93BF93EF93FF93E091D9
:1008A0007900F0917A000995FF91EF91BF91AF9196
:1008B0009F918F917F916F915F914F913F912F9178
:1008C0000F900FBE0F901F901895813069F0813006
:1008D00028F0823079F08330C1F412C081E060E109
:1008E0004FEF0E949700089581E060E24FEF0E9471
:1008F0009700089581E060E44FEF0E94970008950B
:1009000081E060E84FEF0E9497000895813069F020
:10091000813028F0823079F08330C1F412C081E058
:1009200060E14FEF0E94D600089581E060E24FEF52
:100930000E94D600089581E060E44FEF0E94D60047
:10094000089581E060E84FEF0E94D600089581305D
:1009500069F0813028F0823079F08330C1F412C020
:1009600081E060E140E00E94D600089581E060E20D
:1009700040E00E94D600089581E060E440E00E94DB
:10098000D600089581E060E840E00E94D600089516
:10099000813061F0813028F0823069F08330A1F439
:1009A0000FC081E060E10E941101089581E060E2E2
:1009B0000E941101089581E060E40E9411010895F0
:1009C00081E060E80E9411010895813069F0813072
:1009D00028F0823079F08330C1F412C082E060E107
:1009E00040E00E949700089581E064E040E00E94AA
:1009F0009700089580E064E040E00E949700089529
:100A000080E068E040E00E94970008958130E9F0BE
:100A1000813030F0823061F1833009F04FC03BC04B
:100A200082E060E10E942A01813009F048C082E33F
:100A300090E00E94440882E060E10E942A0191E077
:100A4000813009F443C090E041C081E064E00E943D
:100A50002A018130B1F582E390E00E94440881E0F0
:100A600064E00E942A0191E0813081F190E02EC083
:100A700080E064E00E942A01813029F582E390E061
:100A80000E94440880E064E00E942A0191E08130E5
:100A9000E9F090E01BC080E068E00E942A0181300C
:100AA000A1F482E390E00E94440880E068E00E94A4
:100AB0002A0191E0813051F090E008C0089590E063
:100AC00005C090E003C090E001C090E0892F089538
:100AD000089580E00E94650481E00E94650482E040
:100AE0000E94650483E00E94650480E060E041E0CC
:100AF0002AE000E0EE24CC240E945B0982E06FEF44
:100B00000E94490081E00E94AE05CCE6D0E00E9440
:100B1000E30780936C00A99A0E944E096AE070E096
:100B200080E090E00E94230AA9980E944E0961E0AB
:100B300070E080E090E00E94230ACE010E94C3058D
:100B4000E6CF882319F0813041F404C084B78F7B4D
:100B500084BF089584B7806484BF0895EF920F9393
:100B600080E060E041E020E000E0EE24E3940E94B9
:100B7000F2070E9445010E94490181E00E94A105FF
:100B80000F91EF9008954F925F926F927F928F92A4
:100B90009F92AF92BF92CF92DF92EF92FF920F930C
:100BA0001F93CF93DF93FC01208130916D00932F31
:100BB00080E0820F911D60EA73E00E947E0C562E49
:100BC000472EC72FCC0FCC0BDC2F9C2E8C2E7C2ECF
:100BD0006C2EF7E06F1779F4772369F4CC2359F47E
:100BE000CC2349F4CC2339F4CC2329F4CC2319F4B5
:100BF000CC2309F47DC1252D342D4C2F5C2F6C2F77
:100C00007C2F8C2F9C2F0F2EF7E0AF2EF02DBB24C6
:100C1000CC24DD24EE24FF2400E010E00E94B60A7C
:100C2000823008F07DC083E0581679F4442069F4DE
:100C3000CC2359F4DD2349F4992039F4882029F490
:100C4000772019F4662009F42FC1252D342D4C2F5F
:100C50005C2F6C2F7C2F8C2F9C2F0F2EF3E0AF2E50
:100C6000F02DBB24CC24DD24EE24FF2400E010E092
:100C70000E94B60A823048F5E1E05E1679F444201D
:100C800069F4CC2359F4DD2349F4992039F4882000
:100C900029F4772019F4662009F4F4C0252D342DA9
:100CA0004C2F5C2F6C2F7C2F8C2F9C2FAA24A3946D
:100CB000BB24CC24DD24EE24FF2400E010E00E94BD
:100CC000B60A823008F0E7C0D5C0F5E05F1679F4C7
:100CD000442069F4CC2359F4DD2349F4992039F4F4
:100CE000882029F4772019F4662009F4EFC0252D17
:100CF000342D4C2F5C2F6C2F7C2F8C2F9C2F0F2E84
:100D0000F5E0AF2EF02DBB24CC24DD24EE24FF240F
:100D100000E010E00E94B60A823008F0E0C0CDC0CA
:100D20008BE0581679F4442069F4CC2359F4DD2380
:100D300049F4992039F4882029F4772019F46620A1
:100D400009F4FAC0252D342D4C2F5C2F6C2F7C2FED
:100D50008C2F9C2F0F2EFBE0AF2EF02DBB24CC242C
:100D6000DD24EE24FF2400E010E00E94B60A823069
:100D700058F5E9E05E1679F4442069F4CC2359F47F
:100D8000DD2349F4992039F4882029F4772019F4D7
:100D9000662009F4BFC0252D342D4C2F5C2F6C2FFD
:100DA0007C2F8C2F9C2F0F2EF9E0AF2EF02DBB2423
:100DB000CC24DD24EE24FF2400E010E00E94B60ADB
:100DC000823008F0B0C09DC0FDE05F1679F4442089
:100DD00069F4CC2359F4DD2349F4992039F48820AF
:100DE00029F4772019F4662009F4B8C0252D342D94
:100DF0004C2F5C2F6C2F7C2F8C2F9C2F0F2EFDE007
:100E0000AF2EF02DBB24CC24DD24EE24FF2400E003
:100E100010E00E94B60A813008F497C08EE05816A0
:100E200079F4442069F4CC2359F4DD2349F4992062
:100E300039F4882029F4772019F4662009F497C042
:100E4000EFE05E1609F0A5C0442009F0A2C0CC2353
:100E500009F09FC0DD2309F09CC0992009F099C0DA
:100E6000882009F096C0772009F093C0662009F029
:100E700090C086C018BA0E944E0984E690E00E9495
:100E8000AB0988C080E188BB0E944E0984E690E0EF
:100E90000E94AB097FC080E288BB0E944E0984E6B5
:100EA00090E00E94AB0976C080E388BB0E944E09A7
:100EB00084E690E00E94AB096DC080E488BB0E948C
:100EC0004E0984E690E00E94AB0964C080E588BBCF
:100ED0000E944E0984E690E00E94AB095BC080E668
:100EE00088BB0E944E0984E690E00E94AB0952C084
:100EF00080E788BB0E944E0984E690E00E94AB091F
:100F000049C080E888BB0E944E0984E690E00E94B8
:100F1000AB0940C00E944E0984E690E00E94AB09F4
:100F200080E988BB37C00E944E0984E690E00E94A9
:100F3000AB0980EA88BB2EC00E944E0984E690E08F
:100F40000E94AB0980E488BB25C00E944E0984E65C
:100F500090E00E94AB0980EC88BB1CC00E944E0947
:100F600084E690E00E94AB0980ED88BB13C00E942C
:100F70004E0984E690E00E94AB0980EE88BB0AC06F
:100F80000E944E0984E690E00E94AB0980EF88BB86
:100F900001C018BADF91CF911F910F91FF90EF9090
:100FA000DF90CF90BF90AF909F908F907F906F9089
:100FB0005F904F9008950E94EE0708950E94E50704
:100FC000089582BF089582B7089583B7887F83BF4D
:100FD00093B780917400892B83BF089583B7887F6E
:100FE00083BF0895EF920F93442319F40E94EE07F4
:100FF00048C093B7892B842B83BF4093740022BFD2
:10100000603171F0613118F4662331F014C0603240
:1010100059F0603381F40CC083B78F7C83BF0BC061
:1010200083B7806183BF07C083B7806283BF03C07B
:1010300083B7806383BF0CBF81E0E81669F0E816D0
:1010400020F082E0E816E9F410C0109273000E94CC
:10105000550189B719BE15C081E0809373000E94C5
:10106000450189B7816089BF0CC081E0809373001E
:101070008FB780688FBF89B7816089BF89B7826069
:1010800089BF0F91EF900895AC0160E070E04115C9
:1010900051056105710589F080E090E0DC0108B63A
:1010A00000FEFDCF28B7216028BF0196A11DB11D0C
:1010B00084179507A607B70790F30895DC01CB01C5
:1010C00010926D000097A105B10531F080EF0E94EC
:1010D000E1070E94E307FDCF88B7816088BF0895CC
:1010E000CF92DF92EF92FF92CF93C82F8FEF809332
:1010F0006F0060916F0070E080E090E00E948D0BC7
:101100006B017C016C2F70E080E090E00E948D0B01
:1011100020E030E048EC52E40E94F90A9B01AC0167
:10112000C701B6010E941B0C0E94610B60936F0007
:1011300080917300882319F0813029F51FC00E9427
:10114000E50780916F000E94E10708B600FEFDCF21
:1011500088B7816088BF85B38FEF85BB0E94E507A4
:1011600080916F0080950E94E10708B600FEFDCFD8
:1011700088B7816088BF85B315BA05C00E94E507AE
:1011800080916F008CBFCF91FF90EF90DF90CF9058
:101190000895EF920F9380E060E041E020E000E0EE
:1011A000EE240E94F20780E560E00E94700880E073
:1011B00060E041E020E0EE24E3940E94F2070F910A
:1011C000EF90089580916D008F5F80936D0008957A
:1011D00082B3809582BB0895AF92EF92FF920F93F6
:1011E0001F93D9012A2DEEB5FFB590E0862B972BE2
:1011F0008E2B9F2B9FBD8EBD409370001BBD0ABDE3
:10120000F9BCE8BCBDBDACBD2830D1F0293028F414
:10121000AA2051F02430F9F40BC02032A9F02C336D
:10122000B9F02031C1F408C089B7837C89BF13C0ED
:1012300089B7846089BF0FC089B7806189BF0BC03F
:1012400089B7886089BF07C089B7806289BF03C03A
:1012500089B78C6389BF1F910F91FF90EF90AF907A
:1012600008959DBD8CBD08958CB59DB508952EB58E
:101270003FB58091700090E0822B932B9FBD8EBD77
:1012800008958EB59FB5887F9FBD8EBD0895089542
:101290000895089584BD089584B5089585B5887F1F
:1012A00085BD95B580917100892B85BD089585B563
:1012B000887F85BD0895CF920F93442319F40E942F
:1012C000570946C095B5892B842B85BD4093710085
:1012D00024BD603171F0613118F4662331F014C01F
:1012E000603259F0603381F40CC085B58F7C85BDC8
:1012F0000BC085B5806185BD07C085B5806285BDA1
:1013000003C085B5806385BD03BD80E4C81661F068
:1013100080E8C81691F0CC20D9F4109272000E9497
:10132000550189B719BE14C081E0809372000E94F4
:10133000450189B7806489BF0BC081E0809372004A
:101340000E94450189B7806489BF89B7806889BFD9
:101350000F91CF9008950F931F93CF93DF9300D0F9
:1013600000D0CDB7DEB78C011A8219821B821C8295
:10137000809171008430F9F0853038F4823089F042
:101380008330A0F4813051F507C08630F1F086300B
:10139000B8F0873019F51EC08AE38B838AE08C830E
:1013A0001DC088E08B838CE08C8318C082E08B8327
:1013B00088E08C8313C081E08B8386E08C830EC031
:1013C00081E08B8383E88C8309C081E08B8382EC8E
:1013D0008C8304C081E08B8380EF8C831A82198216
:1013E0002B8149815A8130E0029FC001039F900DFB
:1013F000129F900D112448175907E0F48C810E9428
:101400004A0908B606FEFDCF88B7806488BF898187
:101410009A8101969A8389832B8149815A8130E090
:10142000029FC001039F900D129F900D1124481739
:10143000590720F30F900F900F900F90DF91CF91ED
:101440001F910F910895CF92DF92EF92FF92CF9369
:10145000DF9300D0CDB7DEB76B017C011A82198211
:101460001A82198289819A81A0E0B0E08C159D05CD
:10147000AE05BF05B8F48EEF0E944A0908B606FE15
:10148000FDCF88B7806488BF89819A8101969A834D
:10149000898389819A81A0E0B0E08C159D05AE0515
:1014A000BF0548F30F900F90DF91CF91FF90EF9021
:1014B000DF90CF900895CF92DF92EF92FF92CF937B
:1014C000C82F8FEF80936F0060916F0070E080E015
:1014D00090E00E948D0B6B017C016C2F70E080E02E
:1014E00090E00E948D0B20E030E048EC52E40E9436
:1014F000F90A9B01AC01C701B6010E941B0C0E94B6
:10150000610B60936F0080917200882319F0813025
:1015100029F51FC00E944E0980916F000E944A0960
:1015200008B602FEFDCF88B7846088BF85B38FEF11
:1015300085BB0E944E0980916F0080950E944A09E8
:1015400008B602FEFDCF88B7846088BF85B315BAA0
:1015500005C00E944E0980916F0083BDCF91FF901E
:10156000EF90DF90CF90089508950895A0E1B0E046
:10157000ECEBFAE00C94AD0C29873A874B875C873B
:101580006D877E878F87988BA982BA82CB82DC8217
:10159000ED82FE820F8318874D855E856F85788981
:1015A0008D819E81AF81B885481759076A077B07EF
:1015B000C8F084179507A607B70790F049855A85A4
:1015C0006B857C8589819A81AB81BC8148175907DD
:1015D0006A077B0738F084179507A607B70720F43A
:1015E00082E003C080E001C081E06096EAE00C94F4
:1015F000C90C0CD0E6C0DED040F0D5D030F021F4DC
:101600005F3F19F0C7C0511110C1CAC0EBD098F3A9
:101610009923C9F35523B1F3951B550BBB27AA2773
:1016200062177307840738F09F5F5F4F220F331FE5
:10163000441FAA1FA9F333D00E2E3AF0E0E830D0B1
:1016400091505040E695001CCAF729D0FE2F27D0B4
:10165000660F771F881FBB1F261737074807AB0782
:10166000B0E809F0BB0B802DBF01FF2793585F4FF7
:101670002AF09E3F510568F08DC0D7C05F3FECF364
:10168000983EDCF3869577956795B795F7959F5FBC
:10169000C9F7880F911D9695879597F90895E1E010
:1016A000660F771F881FBB1F621773078407BA076F
:1016B00020F0621B730B840BBA0BEE1F88F7E095CA
:1016C000089598D088F09F5790F0B92F9927B75177
:1016D000A0F0D1F0660F771F881F991F1AF0BA95F6
:1016E000C9F712C0B13081F09FD0B1E008959CC01D
:1016F000672F782F8827B85F39F0B93FCCF38695EC
:1017000077956795B395D9F73EF490958095709548
:1017100061957F4F8F4F9F4F0895E89409C097FBC5
:101720003EF490958095709561957F4F8F4F9F4FB8
:101730009923A9F0F92F96E9BB279395F6958795FC
:1017400077956795B795F111F8CFFAF4BB0F11F4BF
:1017500060FF1BC06F5F7F4F8F4F9F4F16C0882366
:1017600011F096E911C0772321F09EE8872F762F9C
:1017700005C0662371F096E8862F70E060E02AF0DD
:101780009A95660F771F881FDAF7880F96958795C9
:1017900097F9089597F99F6780E870E060E00895F1
:1017A0009FEF80EC089500240A9416161706180679
:1017B0000906089500240A94121613061406050655
:1017C0000895092E0394000C11F4882352F0BB0FE6
:1017D00040F4BF2B11F460FF04C06F5F7F4F8F4F49
:1017E0009F4F089557FD9058440F551F59F05F3F84
:1017F00071F04795880F97FB991F61F09F3F79F033
:1018000087950895121613061406551FF2CF4695B4
:10181000F1DF08C0161617061806991FF1CF869536
:101820007105610508940895E894BB27662777271A
:10183000CB0197F908950BD0C4CFB5DF28F0BADFFC
:1018400018F0952309F0A6CFABCF1124EECFCADF55
:10185000A0F3959FD1F3950F50E0551F629FF001C3
:10186000729FBB27F00DB11D639FAA27F00DB11D1C
:10187000AA1F649F6627B00DA11D661F829F2227A5
:10188000B00DA11D621F739FB00DA11D621F839F2C
:10189000A00D611D221F749F3327A00D611D231F02
:1018A000849F600D211D822F762F6A2F11249F5750
:1018B00050408AF0E1F088234AF0EE0FFF1FBB1F73
:1018C000661F771F881F91505040A9F79E3F510512
:1018D00070F060CFAACF5F3FECF3983EDCF38695C3
:1018E00077956795B795F795E7959F5FC1F7FE2BBD
:1018F000880F911D9695879597F9089597FB092E66
:1019000007260AD077FD04D00CD006D000201AF4A8
:10191000709561957F4F0895F6F7909581959F4F4B
:101920000895AA1BBB1B51E107C0AA1FBB1FA61726
:10193000B70710F0A61BB70B881F991F5A95A9F778
:1019400080959095BC01CD0108952F923F924F92C2
:101950005F926F927F928F929F92AF92BF92CF923F
:10196000DF92EF92FF920F931F93CF93DF93CDB748
:10197000DEB7CA1BDB0B0FB6F894DEBF0FBECDBFC0
:1019800009942A88398848885F846E847D848C8491
:101990009B84AA84B984C884DF80EE80FD800C819A
:1019A0001B81AA81B981CE0FD11D0FB6F894DEBF7D
:0C19B0000FBECDBFED010895F894FFCFED
:0C19BC00E208E808B50AB40A680501005A
:00000001FF
